{
  "_format": "hh-sol-artifact-1",
  "contractName": "Viltrum",
  "sourceName": "contracts/Viltrum.sol",
  "abi": [
    {
      "inputs": [],
      "stateMutability": "nonpayable",
      "type": "constructor"
    },
    {
      "anonymous": false,
      "inputs": [
        {
          "indexed": true,
          "internalType": "address",
          "name": "owner",
          "type": "address"
        },
        {
          "indexed": true,
          "internalType": "address",
          "name": "spender",
          "type": "address"
        },
        {
          "indexed": false,
          "internalType": "uint256",
          "name": "value",
          "type": "uint256"
        }
      ],
      "name": "Approval",
      "type": "event"
    },
    {
      "anonymous": false,
      "inputs": [
        {
          "indexed": true,
          "internalType": "address",
          "name": "previousOwner",
          "type": "address"
        },
        {
          "indexed": true,
          "internalType": "address",
          "name": "newOwner",
          "type": "address"
        }
      ],
      "name": "OwnershipTransferred",
      "type": "event"
    },
    {
      "anonymous": false,
      "inputs": [
        {
          "indexed": true,
          "internalType": "address",
          "name": "to",
          "type": "address"
        },
        {
          "indexed": false,
          "internalType": "uint256",
          "name": "amount",
          "type": "uint256"
        }
      ],
      "name": "TokensMinted",
      "type": "event"
    },
    {
      "anonymous": false,
      "inputs": [
        {
          "indexed": true,
          "internalType": "address",
          "name": "requester",
          "type": "address"
        },
        {
          "indexed": false,
          "internalType": "uint256",
          "name": "amount",
          "type": "uint256"
        },
        {
          "indexed": false,
          "internalType": "uint256",
          "name": "nextAvailableAt",
          "type": "uint256"
        }
      ],
      "name": "TokensRequested",
      "type": "event"
    },
    {
      "anonymous": false,
      "inputs": [
        {
          "indexed": true,
          "internalType": "address",
          "name": "from",
          "type": "address"
        },
        {
          "indexed": true,
          "internalType": "address",
          "name": "to",
          "type": "address"
        },
        {
          "indexed": false,
          "internalType": "uint256",
          "name": "value",
          "type": "uint256"
        }
      ],
      "name": "Transfer",
      "type": "event"
    },
    {
      "inputs": [],
      "name": "COOLDOWN",
      "outputs": [
        {
          "internalType": "uint256",
          "name": "",
          "type": "uint256"
        }
      ],
      "stateMutability": "view",
      "type": "function"
    },
    {
      "inputs": [],
      "name": "FAUCET_AMOUNT",
      "outputs": [
        {
          "internalType": "uint256",
          "name": "",
          "type": "uint256"
        }
      ],
      "stateMutability": "view",
      "type": "function"
    },
    {
      "inputs": [],
      "name": "MAX_SUPPLY",
      "outputs": [
        {
          "internalType": "uint256",
          "name": "",
          "type": "uint256"
        }
      ],
      "stateMutability": "view",
      "type": "function"
    },
    {
      "inputs": [
        {
          "internalType": "address",
          "name": "owner",
          "type": "address"
        },
        {
          "internalType": "address",
          "name": "spender",
          "type": "address"
        }
      ],
      "name": "allowance",
      "outputs": [
        {
          "internalType": "uint256",
          "name": "",
          "type": "uint256"
        }
      ],
      "stateMutability": "view",
      "type": "function"
    },
    {
      "inputs": [
        {
          "internalType": "address",
          "name": "spender",
          "type": "address"
        },
        {
          "internalType": "uint256",
          "name": "amount",
          "type": "uint256"
        }
      ],
      "name": "approve",
      "outputs": [
        {
          "internalType": "bool",
          "name": "",
          "type": "bool"
        }
      ],
      "stateMutability": "nonpayable",
      "type": "function"
    },
    {
      "inputs": [
        {
          "internalType": "address",
          "name": "account",
          "type": "address"
        }
      ],
      "name": "balanceOf",
      "outputs": [
        {
          "internalType": "uint256",
          "name": "",
          "type": "uint256"
        }
      ],
      "stateMutability": "view",
      "type": "function"
    },
    {
      "inputs": [
        {
          "internalType": "address",
          "name": "user",
          "type": "address"
        }
      ],
      "name": "cooldownRemaining",
      "outputs": [
        {
          "internalType": "uint256",
          "name": "",
          "type": "uint256"
        }
      ],
      "stateMutability": "view",
      "type": "function"
    },
    {
      "inputs": [],
      "name": "decimals",
      "outputs": [
        {
          "internalType": "uint8",
          "name": "",
          "type": "uint8"
        }
      ],
      "stateMutability": "view",
      "type": "function"
    },
    {
      "inputs": [
        {
          "internalType": "address",
          "name": "spender",
          "type": "address"
        },
        {
          "internalType": "uint256",
          "name": "subtractedValue",
          "type": "uint256"
        }
      ],
      "name": "decreaseAllowance",
      "outputs": [
        {
          "internalType": "bool",
          "name": "",
          "type": "bool"
        }
      ],
      "stateMutability": "nonpayable",
      "type": "function"
    },
    {
      "inputs": [
        {
          "internalType": "address",
          "name": "spender",
          "type": "address"
        },
        {
          "internalType": "uint256",
          "name": "addedValue",
          "type": "uint256"
        }
      ],
      "name": "increaseAllowance",
      "outputs": [
        {
          "internalType": "bool",
          "name": "",
          "type": "bool"
        }
      ],
      "stateMutability": "nonpayable",
      "type": "function"
    },
    {
      "inputs": [
        {
          "internalType": "address",
          "name": "to",
          "type": "address"
        },
        {
          "internalType": "uint256",
          "name": "amount",
          "type": "uint256"
        }
      ],
      "name": "mint",
      "outputs": [],
      "stateMutability": "nonpayable",
      "type": "function"
    },
    {
      "inputs": [],
      "name": "name",
      "outputs": [
        {
          "internalType": "string",
          "name": "",
          "type": "string"
        }
      ],
      "stateMutability": "view",
      "type": "function"
    },
    {
      "inputs": [
        {
          "internalType": "address",
          "name": "user",
          "type": "address"
        }
      ],
      "name": "nextClaimTime",
      "outputs": [
        {
          "internalType": "uint256",
          "name": "",
          "type": "uint256"
        }
      ],
      "stateMutability": "view",
      "type": "function"
    },
    {
      "inputs": [],
      "name": "owner",
      "outputs": [
        {
          "internalType": "address",
          "name": "",
          "type": "address"
        }
      ],
      "stateMutability": "view",
      "type": "function"
    },
    {
      "inputs": [],
      "name": "remainingMintable",
      "outputs": [
        {
          "internalType": "uint256",
          "name": "",
          "type": "uint256"
        }
      ],
      "stateMutability": "view",
      "type": "function"
    },
    {
      "inputs": [],
      "name": "renounceOwnership",
      "outputs": [],
      "stateMutability": "nonpayable",
      "type": "function"
    },
    {
      "inputs": [],
      "name": "requestToken",
      "outputs": [],
      "stateMutability": "nonpayable",
      "type": "function"
    },
    {
      "inputs": [],
      "name": "symbol",
      "outputs": [
        {
          "internalType": "string",
          "name": "",
          "type": "string"
        }
      ],
      "stateMutability": "view",
      "type": "function"
    },
    {
      "inputs": [],
      "name": "totalSupply",
      "outputs": [
        {
          "internalType": "uint256",
          "name": "",
          "type": "uint256"
        }
      ],
      "stateMutability": "view",
      "type": "function"
    },
    {
      "inputs": [
        {
          "internalType": "address",
          "name": "to",
          "type": "address"
        },
        {
          "internalType": "uint256",
          "name": "amount",
          "type": "uint256"
        }
      ],
      "name": "transfer",
      "outputs": [
        {
          "internalType": "bool",
          "name": "",
          "type": "bool"
        }
      ],
      "stateMutability": "nonpayable",
      "type": "function"
    },
    {
      "inputs": [
        {
          "internalType": "address",
          "name": "from",
          "type": "address"
        },
        {
          "internalType": "address",
          "name": "to",
          "type": "address"
        },
        {
          "internalType": "uint256",
          "name": "amount",
          "type": "uint256"
        }
      ],
      "name": "transferFrom",
      "outputs": [
        {
          "internalType": "bool",
          "name": "",
          "type": "bool"
        }
      ],
      "stateMutability": "nonpayable",
      "type": "function"
    },
    {
      "inputs": [
        {
          "internalType": "address",
          "name": "newOwner",
          "type": "address"
        }
      ],
      "name": "transferOwnership",
      "outputs": [],
      "stateMutability": "nonpayable",
      "type": "function"
    }
  ],
  "bytecode": "0x60806040523480156200001157600080fd5b506040518060400160405280600781526020016656696c7472756d60c81b8152506040518060400160405280600381526020016215925360ea1b81525081600390816200005f91906200026c565b5060046200006e82826200026c565b5050506200008b62000085620000a760201b60201c565b620000ab565b620000a13369d3c21bcecceda1000000620000fd565b62000360565b3390565b600580546001600160a01b038381166001600160a01b0319831681179093556040519116919082907f8be0079c531659141344cd1fd0a4f28419497f9722a3daafe3b4186f6b6457e090600090a35050565b6001600160a01b038216620001585760405162461bcd60e51b815260206004820152601f60248201527f45524332303a206d696e7420746f20746865207a65726f206164647265737300604482015260640160405180910390fd5b80600260008282546200016c919062000338565b90915550506001600160a01b038216600081815260208181526040808320805486019055518481527fddf252ad1be2c89b69c2b068fc378daa952ba7f163c4a11628f55a4df523b3ef910160405180910390a35050565b505050565b634e487b7160e01b600052604160045260246000fd5b600181811c90821680620001f357607f821691505b6020821081036200021457634e487b7160e01b600052602260045260246000fd5b50919050565b601f821115620001c357600081815260208120601f850160051c81016020861015620002435750805b601f850160051c820191505b8181101562000264578281556001016200024f565b505050505050565b81516001600160401b03811115620002885762000288620001c8565b620002a081620002998454620001de565b846200021a565b602080601f831160018114620002d85760008415620002bf5750858301515b600019600386901b1c1916600185901b17855562000264565b600085815260208120601f198616915b828110156200030957888601518255948401946001909101908401620002e8565b5085821015620003285787850151600019600388901b60f8161c191681555b5050505050600190811b01905550565b808201808211156200035a57634e487b7160e01b600052601160045260246000fd5b92915050565b6110e080620003706000396000f3fe608060405234801561001057600080fd5b50600436106101425760003560e01c8063715018a6116100b8578063a2724a4d1161007c578063a2724a4d14610288578063a457c2d714610292578063a9059cbb146102a5578063dd62ed3e146102b8578063f2fde38b146102cb578063f76e95e5146102de57600080fd5b8063715018a61461023a57806376697640146102425780638da5cb5b1461025257806395d89b411461026d5780639d82190f1461027557600080fd5b806332cb6b0c1161010a57806332cb6b0c146101bc57806339509351146101ce57806340c10f19146101e15780634d7ec628146101f657806370a08231146101fe57806370f23da71461022757600080fd5b806306fdde0314610147578063095ea7b31461016557806318160ddd1461018857806323b872dd1461019a578063313ce567146101ad575b600080fd5b61014f6102e6565b60405161015c9190610e7d565b60405180910390f35b610178610173366004610ecc565b610378565b604051901515815260200161015c565b6002545b60405190815260200161015c565b6101786101a8366004610ef6565b610392565b6040516012815260200161015c565b61018c6a084595161401484a00000081565b6101786101dc366004610ecc565b6103b6565b6101f46101ef366004610ecc565b6103d8565b005b6101f461054a565b61018c61020c366004610f32565b6001600160a01b031660009081526020819052604090205490565b61018c610235366004610f32565b6106a9565b6101f46106ec565b61018c68056bc75e2d6310000081565b6005546040516001600160a01b03909116815260200161015c565b61014f610700565b61018c610283366004610f32565b61070f565b61018c6201518081565b6101786102a0366004610ecc565b610751565b6101786102b3366004610ecc565b6107cc565b61018c6102c6366004610f4d565b6107da565b6101f46102d9366004610f32565b610805565b61018c61087e565b6060600380546102f590610f80565b80601f016020809104026020016040519081016040528092919081815260200182805461032190610f80565b801561036e5780601f106103435761010080835404028352916020019161036e565b820191906000526020600020905b81548152906001019060200180831161035157829003601f168201915b5050505050905090565b6000336103868185856108a3565b60019150505b92915050565b6000336103a08582856109c7565b6103ab858585610a41565b506001949350505050565b6000336103868185856103c983836107da565b6103d39190610fd0565b6108a3565b6103e0610be5565b6001600160a01b03821661043b5760405162461bcd60e51b815260206004820152601d60248201527f56696c7472756d3a206d696e7420746f207a65726f206164647265737300000060448201526064015b60405180910390fd5b6000811161048b5760405162461bcd60e51b815260206004820152601b60248201527f56696c7472756d3a20616d6f756e74206d757374206265203e203000000000006044820152606401610432565b6a084595161401484a000000816104a160025490565b6104ab9190610fd0565b11156104f95760405162461bcd60e51b815260206004820152601b60248201527f56696c7472756d3a2065786365656473206d617820737570706c7900000000006044820152606401610432565b6105038282610c3f565b816001600160a01b03167f3f2c9d57c068687834f0de942a9babb9e5acab57d516d3480a3c16ee165a42738260405161053e91815260200190565b60405180910390a25050565b33600090815260066020526040812054906105686201518083610fd0565b9050804210156105bf57600061057e4283610fe3565b905061058981610cfe565b6040516020016105999190610ff6565b60408051601f198184030181529082905262461bcd60e51b825261043291600401610e7d565b6a084595161401484a00000068056bc75e2d631000006105de60025490565b6105e89190610fd0565b11156106365760405162461bcd60e51b815260206004820152601b60248201527f56696c7472756d3a206d617820737570706c79207265616368656400000000006044820152606401610432565b33600081815260066020526040902042905561065b9068056bc75e2d63100000610c3f565b337f1545c907bc00c8c1959efb40287a1f8a7f5bc5041e5d550c3adef488ef33750868056bc75e2d631000006106946201518042610fd0565b6040805192835260208301919091520161053e565b6001600160a01b03811660009081526006602052604081205481906106d2906201518090610fd0565b9050804210156106e257806106e5565b60005b9392505050565b6106f4610be5565b6106fe6000610e07565b565b6060600480546102f590610f80565b6001600160a01b0381166000908152600660205260408120548190610738906201518090610fd0565b9050804210156106e25761074c4282610fe3565b6106e5565b6000338161075f82866107da565b9050838110156107bf5760405162461bcd60e51b815260206004820152602560248201527f45524332303a2064656372656173656420616c6c6f77616e63652062656c6f77604482015264207a65726f60d81b6064820152608401610432565b6103ab82868684036108a3565b600033610386818585610a41565b6001600160a01b03918216600090815260016020908152604080832093909416825291909152205490565b61080d610be5565b6001600160a01b0381166108725760405162461bcd60e51b815260206004820152602660248201527f4f776e61626c653a206e6577206f776e657220697320746865207a65726f206160448201526564647265737360d01b6064820152608401610432565b61087b81610e07565b50565b600061088960025490565b61089e906a084595161401484a000000610fe3565b905090565b6001600160a01b0383166109055760405162461bcd60e51b8152602060048201526024808201527f45524332303a20617070726f76652066726f6d20746865207a65726f206164646044820152637265737360e01b6064820152608401610432565b6001600160a01b0382166109665760405162461bcd60e51b815260206004820152602260248201527f45524332303a20617070726f766520746f20746865207a65726f206164647265604482015261737360f01b6064820152608401610432565b6001600160a01b0383811660008181526001602090815260408083209487168084529482529182902085905590518481527f8c5be1e5ebec7d5bd14f71427d1e84f3dd0314c0f7b2291e5b200ac8c7c3b925910160405180910390a3505050565b60006109d384846107da565b90506000198114610a3b5781811015610a2e5760405162461bcd60e51b815260206004820152601d60248201527f45524332303a20696e73756666696369656e7420616c6c6f77616e63650000006044820152606401610432565b610a3b84848484036108a3565b50505050565b6001600160a01b038316610aa55760405162461bcd60e51b815260206004820152602560248201527f45524332303a207472616e736665722066726f6d20746865207a65726f206164604482015264647265737360d81b6064820152608401610432565b6001600160a01b038216610b075760405162461bcd60e51b815260206004820152602360248201527f45524332303a207472616e7366657220746f20746865207a65726f206164647260448201526265737360e81b6064820152608401610432565b6001600160a01b03831660009081526020819052604090205481811015610b7f5760405162461bcd60e51b815260206004820152602660248201527f45524332303a207472616e7366657220616d6f756e7420657863656564732062604482015265616c616e636560d01b6064820152608401610432565b6001600160a01b03848116600081815260208181526040808320878703905593871680835291849020805487019055925185815290927fddf252ad1be2c89b69c2b068fc378daa952ba7f163c4a11628f55a4df523b3ef910160405180910390a3610a3b565b6005546001600160a01b031633146106fe5760405162461bcd60e51b815260206004820181905260248201527f4f776e61626c653a2063616c6c6572206973206e6f7420746865206f776e65726044820152606401610432565b6001600160a01b038216610c955760405162461bcd60e51b815260206004820152601f60248201527f45524332303a206d696e7420746f20746865207a65726f2061646472657373006044820152606401610432565b8060026000828254610ca79190610fd0565b90915550506001600160a01b038216600081815260208181526040808320805486019055518481527fddf252ad1be2c89b69c2b068fc378daa952ba7f163c4a11628f55a4df523b3ef910160405180910390a35050565b606081600003610d255750506040805180820190915260018152600360fc1b602082015290565b8160005b8115610d4f5780610d3981611027565b9150610d489050600a83611056565b9150610d29565b60008167ffffffffffffffff811115610d6a57610d6a61106a565b6040519080825280601f01601f191660200182016040528015610d94576020820181803683370190505b5090505b8415610dff57610da9600183610fe3565b9150610db6600a86611080565b610dc1906030610fd0565b60f81b818381518110610dd657610dd6611094565b60200101906001600160f81b031916908160001a905350610df8600a86611056565b9450610d98565b949350505050565b600580546001600160a01b038381166001600160a01b0319831681179093556040519116919082907f8be0079c531659141344cd1fd0a4f28419497f9722a3daafe3b4186f6b6457e090600090a35050565b60005b83811015610e74578181015183820152602001610e5c565b50506000910152565b6020815260008251806020840152610e9c816040850160208701610e59565b601f01601f19169190910160400192915050565b80356001600160a01b0381168114610ec757600080fd5b919050565b60008060408385031215610edf57600080fd5b610ee883610eb0565b946020939093013593505050565b600080600060608486031215610f0b57600080fd5b610f1484610eb0565b9250610f2260208501610eb0565b9150604084013590509250925092565b600060208284031215610f4457600080fd5b6106e582610eb0565b60008060408385031215610f6057600080fd5b610f6983610eb0565b9150610f7760208401610eb0565b90509250929050565b600181811c90821680610f9457607f821691505b602082108103610fb457634e487b7160e01b600052602260045260246000fd5b50919050565b634e487b7160e01b600052601160045260246000fd5b8082018082111561038c5761038c610fba565b8181038181111561038c5761038c610fba565b6821a7a7a62227aba71d60b91b81526000825161101a816009850160208701610e59565b9190910160090192915050565b60006001820161103957611039610fba565b5060010190565b634e487b7160e01b600052601260045260246000fd5b60008261106557611065611040565b500490565b634e487b7160e01b600052604160045260246000fd5b60008261108f5761108f611040565b500690565b634e487b7160e01b600052603260045260246000fdfea2646970667358221220e06dcefc3ed4ed2c88bfcf33ab97c65dbf005e2a50bab9ab47bef65d90c17c6c64736f6c63430008140033",
  "linkReferences": {},
  "deployedLinkReferences": {}
}